{
  "_format": "hh-sol-artifact-1",
  "contractName": "PaymentVault",
  "sourceName": "contracts/PaymentVaultNoProxyV3.sol",
  "abi": [
    {
      "inputs": [
        {
          "internalType": "contract IERC20",
          "name": "_antToken",
          "type": "address"
        }
      ],
      "stateMutability": "nonpayable",
      "type": "constructor"
    },
    {
      "inputs": [
        {
          "internalType": "address",
          "name": "target",
          "type": "address"
        }
      ],
      "name": "AddressEmptyCode",
      "type": "error"
    },
    {
      "inputs": [
        {
          "internalType": "address",
          "name": "account",
          "type": "address"
        }
      ],
      "name": "AddressInsufficientBalance",
      "type": "error"
    },
    {
      "inputs": [],
      "name": "AntTokenNull",
      "type": "error"
    },
    {
      "inputs": [],
      "name": "BatchLimitExceeded",
      "type": "error"
    },
    {
      "inputs": [],
      "name": "FailedInnerCall",
      "type": "error"
    },
    {
      "inputs": [],
      "name": "InvalidInputLength",
      "type": "error"
    },
    {
      "inputs": [
        {
          "internalType": "address",
          "name": "token",
          "type": "address"
        }
      ],
      "name": "SafeERC20FailedOperation",
      "type": "error"
    },
    {
      "anonymous": false,
      "inputs": [
        {
          "indexed": true,
          "internalType": "address",
          "name": "rewardsAddress",
          "type": "address"
        },
        {
          "indexed": true,
          "internalType": "uint256",
          "name": "amount",
          "type": "uint256"
        },
        {
          "indexed": true,
          "internalType": "bytes32",
          "name": "quoteHash",
          "type": "bytes32"
        }
      ],
      "name": "DataPaymentMade",
      "type": "event"
    },
    {
      "inputs": [],
      "name": "antToken",
      "outputs": [
        {
          "internalType": "contract IERC20",
          "name": "",
          "type": "address"
        }
      ],
      "stateMutability": "view",
      "type": "function"
    },
    {
      "inputs": [],
      "name": "batchLimit",
      "outputs": [
        {
          "internalType": "uint256",
          "name": "",
          "type": "uint256"
        }
      ],
      "stateMutability": "view",
      "type": "function"
    },
    {
      "inputs": [
        {
          "internalType": "bytes32",
          "name": "",
          "type": "bytes32"
        }
      ],
      "name": "completedPayments",
      "outputs": [
        {
          "internalType": "bytes16",
          "name": "rewardsAddress",
          "type": "bytes16"
        },
        {
          "internalType": "uint128",
          "name": "rewardsAddressAmount",
          "type": "uint128"
        },
        {
          "internalType": "bytes16",
          "name": "relayNodeAddress",
          "type": "bytes16"
        },
        {
          "internalType": "uint128",
          "name": "relayNodeAmount",
          "type": "uint128"
        }
      ],
      "stateMutability": "view",
      "type": "function"
    },
    {
      "inputs": [
        {
          "components": [
            {
              "internalType": "enum IPaymentVault.DataType",
              "name": "dataType",
              "type": "uint8"
            },
            {
              "internalType": "uint256",
              "name": "dataSize",
              "type": "uint256"
            },
            {
              "internalType": "uint256",
              "name": "closeRecordsStored",
              "type": "uint256"
            },
            {
              "components": [
                {
                  "internalType": "enum IPaymentVault.DataType",
                  "name": "dataType",
                  "type": "uint8"
                },
                {
                  "internalType": "uint256",
                  "name": "records",
                  "type": "uint256"
                }
              ],
              "internalType": "struct IPaymentVault.Record[]",
              "name": "recordsPerType",
              "type": "tuple[]"
            },
            {
              "internalType": "uint256",
              "name": "maxRecords",
              "type": "uint256"
            },
            {
              "internalType": "uint256",
              "name": "receivedPaymentCount",
              "type": "uint256"
            },
            {
              "internalType": "uint256",
              "name": "liveTime",
              "type": "uint256"
            },
            {
              "internalType": "uint256",
              "name": "networkDensity",
              "type": "uint256"
            },
            {
              "internalType": "uint256",
              "name": "networkSize",
              "type": "uint256"
            }
          ],
          "internalType": "struct IPaymentVault.QuotingMetrics[]",
          "name": "_metrics",
          "type": "tuple[]"
        }
      ],
      "name": "getQuote",
      "outputs": [
        {
          "internalType": "uint256[]",
          "name": "prices",
          "type": "uint256[]"
        }
      ],
      "stateMutability": "pure",
      "type": "function"
    },
    {
      "inputs": [
        {
          "components": [
            {
              "internalType": "address",
              "name": "relayNodeAddress",
              "type": "address"
            },
            {
              "internalType": "address",
              "name": "rewardsAddress",
              "type": "address"
            },
            {
              "internalType": "uint256",
              "name": "amount",
              "type": "uint256"
            },
            {
              "internalType": "bytes32",
              "name": "quoteHash",
              "type": "bytes32"
            }
          ],
          "internalType": "struct IPaymentVault.DataPayment[]",
          "name": "_payments",
          "type": "tuple[]"
        }
      ],
      "name": "payForQuotes",
      "outputs": [],
      "stateMutability": "nonpayable",
      "type": "function"
    },
    {
      "inputs": [],
      "name": "requiredPaymentVerificationLength",
      "outputs": [
        {
          "internalType": "uint256",
          "name": "",
          "type": "uint256"
        }
      ],
      "stateMutability": "view",
      "type": "function"
    },
    {
      "inputs": [
        {
          "components": [
            {
              "components": [
                {
                  "internalType": "enum IPaymentVault.DataType",
                  "name": "dataType",
                  "type": "uint8"
                },
                {
                  "internalType": "uint256",
                  "name": "dataSize",
                  "type": "uint256"
                },
                {
                  "internalType": "uint256",
                  "name": "closeRecordsStored",
                  "type": "uint256"
                },
                {
                  "components": [
                    {
                      "internalType": "enum IPaymentVault.DataType",
                      "name": "dataType",
                      "type": "uint8"
                    },
                    {
                      "internalType": "uint256",
                      "name": "records",
                      "type": "uint256"
                    }
                  ],
                  "internalType": "struct IPaymentVault.Record[]",
                  "name": "recordsPerType",
                  "type": "tuple[]"
                },
                {
                  "internalType": "uint256",
                  "name": "maxRecords",
                  "type": "uint256"
                },
                {
                  "internalType": "uint256",
                  "name": "receivedPaymentCount",
                  "type": "uint256"
                },
                {
                  "internalType": "uint256",
                  "name": "liveTime",
                  "type": "uint256"
                },
                {
                  "internalType": "uint256",
                  "name": "networkDensity",
                  "type": "uint256"
                },
                {
                  "internalType": "uint256",
                  "name": "networkSize",
                  "type": "uint256"
                }
              ],
              "internalType": "struct IPaymentVault.QuotingMetrics",
              "name": "metrics",
              "type": "tuple"
            },
            {
              "internalType": "address",
              "name": "rewardsAddress",
              "type": "address"
            },
            {
              "internalType": "address",
              "name": "relayNodeAddress",
              "type": "address"
            },
            {
              "internalType": "bytes32",
              "name": "quoteHash",
              "type": "bytes32"
            }
          ],
          "internalType": "struct IPaymentVault.PaymentVerification[]",
          "name": "_payments",
          "type": "tuple[]"
        }
      ],
      "name": "verifyPayment",
      "outputs": [
        {
          "components": [
            {
              "internalType": "bytes32",
              "name": "quoteHash",
              "type": "bytes32"
            },
            {
              "internalType": "uint256",
              "name": "amountPaid",
              "type": "uint256"
            },
            {
              "internalType": "bool",
              "name": "isValid",
              "type": "bool"
            }
          ],
          "internalType": "struct IPaymentVault.PaymentVerificationResult[3]",
          "name": "verificationResults",
          "type": "tuple[3]"
        }
      ],
      "stateMutability": "view",
      "type": "function"
    }
  ],
  "bytecode": "0x6080604052348015600f57600080fd5b5060405161128d38038061128d833981016040819052602c916076565b6001600160a01b038116605257604051632d06160b60e21b815260040160405180910390fd5b600080546001600160a01b0319166001600160a01b039290921691909117905560a4565b600060208284031215608757600080fd5b81516001600160a01b0381168114609d57600080fd5b9392505050565b6111da806100b36000396000f3fe608060405234801561001057600080fd5b506004361061007d5760003560e01c8063474740b11161005b578063474740b1146100e05780634ec42e8e146100f7578063c7170bb614610122578063fe3c806e1461012a57600080fd5b80630f3ae4041461008257806310271283146100ab5780633ffbb252146100c0575b600080fd5b610095610090366004610c87565b6101b0565b6040516100a29190610cc9565b60405180910390f35b6100be6100b9366004610d19565b61041b565b005b6100d36100ce366004610c87565b610639565b6040516100a29190610d90565b6100e961020081565b6040519081526020016100a2565b60005461010a906001600160a01b031681565b6040516001600160a01b0390911681526020016100a2565b6100e9600581565b610175610138366004610dd3565b60016020819052600091825260409091208054910154608082811b926001600160801b03600160801b918290048116939283901b92919091041684565b604080516001600160801b031995861681526001600160801b03948516602082015294909216918401919091521660608201526080016100a2565b6101b8610b59565b600582146101d957604051637db491eb60e01b815260040160405180910390fd5b60006101e584846106c2565b905060005b60038110156104135760006001600084846003811061020b5761020b610dec565b602090810291909101516060908101518352828201939093526040918201600090812083516080808201865282546001600160801b031981831b81168452600160801b918290046001600160801b039081169785018890526001958601549384901b909116978401979097529004909416948401859052929450919261029091610e18565b6001600160801b0316158015906102c3575081836060015184602001516102b79190610e18565b6001600160801b031610155b905060006102f88686600381106102dc576102dc610dec565b6020020151602001516001600160801b031960609190911b1690565b84516001600160801b031990811691161480156103395750600086866003811061032457610324610dec565b6020020151602001516001600160a01b031614155b8015610389575061036e86866003811061035557610355610dec565b60200201516040015160601b6001600160801b03191690565b6001600160801b03191684604001516001600160801b031916145b9050600060405180606001604052808888600381106103aa576103aa610dec565b6020020151606001518152602001866060015187602001516103cc9190610e18565b6001600160801b031681526020018480156103e45750835b151590529050808887600381106103fd576103fd610dec565b60200201525050600190930192506101ea915050565b505092915050565b8061020081111561043f57604051630d67f41160e21b815260040160405180910390fd5b60005b81811015610633573684848381811061045d5761045d610dec565b6080029190910191506000905080806104796020850185610e53565b6001600160a01b031603610495575050604081013560006104c3565b60646104a660408501356019610e6e565b6104b09190610e85565b91506104c0826040850135610ea7565b90505b6104eb336104d76040860160208701610e53565b6000546001600160a01b0316919085610964565b801561051657610516336105026020860186610e53565b6000546001600160a01b0316919084610964565b60405180608001604052806105478560200160208101906105379190610e53565b60601b6001600160801b03191690565b6001600160801b0319168152602001836001600160801b0316815260200161057b8560000160208101906105379190610e53565b6001600160801b03191681526001600160801b03838116602092830152606080870135600081815260018086526040918290208751888801518716600160801b908102608092831c1783558985015199909601519096169094029690941c9590951791909201559184916105f3918701908701610e53565b6001600160a01b03167ff998960b1c6f0e0e89b7bbe6b6fbf3e03e6f08eee5b8430877d8adb8e149d58060405160405180910390a4505050600101610442565b50505050565b606060008267ffffffffffffffff81111561065657610656610eba565b60405190808252806020026020018201604052801561067f578160200160208202803683370190505b50905060005b838110156106ba57600060019050808383815181106106a6576106a6610dec565b602090810291909101015250600101610685565b509392505050565b6106ca610b98565b60005b8281101561095c576000600160008686858181106106ed576106ed610dec565b90506020028101906106ff9190610ed0565b60609081013582526020808301939093526040918201600090812083516080808201865282546001600160801b031981831b81168452600160801b918290046001600160801b039081169985018a90526001909501549283901b16968301969096529490940416918301829052919350909161077b9190610e18565b845160609081015160009081526001602081905260408083209091015488519093015182529020546001600160801b0392831693506107c992600160801b9283900481169290910416610e18565b6001600160801b0316811115610823576020840180516040860152845190528585848181106107fa576107fa610dec565b905060200281019061080c9190610ed0565b61081590611050565b8460005b6020020152610952565b60208481018051606090810151600090815260019384905260408082209094015492519091015181529190912054610873916001600160801b03600160801b918290048116929190910416610e18565b6001600160801b03168111156108c2576020840151604085015285858481811061089f5761089f610dec565b90506020028101906108b19190610ed0565b6108ba90611050565b846001610819565b6040848101805160609081015160009081526001602081905284822001549251909101518152919091205461090f916001600160801b03600160801b918290048116929190910416610e18565b6001600160801b03168111156109525785858481811061093157610931610dec565b90506020028101906109439190610ed0565b61094c90611050565b60408501525b50506001016106cd565b505b92915050565b604080516001600160a01b038581166024830152848116604483015260648083018590528351808403909101815260849092019092526020810180516001600160e01b03166323b872dd60e01b179052610633918691906000906109ca90841683610a22565b905080516000141580156109ef5750808060200190518101906109ed9190611153565b155b15610a1d57604051635274afe760e01b81526001600160a01b03841660048201526024015b60405180910390fd5b505050565b6060610a3083836000610a37565b9392505050565b606081471015610a5c5760405163cd78605960e01b8152306004820152602401610a14565b600080856001600160a01b03168486604051610a789190611175565b60006040518083038185875af1925050503d8060008114610ab5576040519150601f19603f3d011682016040523d82523d6000602084013e610aba565b606091505b5091509150610aca868383610ad4565b9695505050505050565b606082610ae957610ae482610b30565b610a30565b8151158015610b0057506001600160a01b0384163b155b15610b2957604051639996b31560e01b81526001600160a01b0385166004820152602401610a14565b5080610a30565b805115610b405780518082602001fd5b604051630a12f52160e11b815260040160405180910390fd5b60405180606001604052806003905b6040805160608101825260008082526020808301829052928201528252600019909201910181610b685790505090565b60405180606001604052806003905b610baf610bc5565b815260200190600190039081610ba75790505090565b6040518060800160405280610c20604080516101208101909152806000815260200160008152602001600081526020016060815260200160008152602001600081526020016000815260200160008152602001600081525090565b81526000602082018190526040820181905260609091015290565b60008083601f840112610c4d57600080fd5b50813567ffffffffffffffff811115610c6557600080fd5b6020830191508360208260051b8501011115610c8057600080fd5b9250929050565b60008060208385031215610c9a57600080fd5b823567ffffffffffffffff811115610cb157600080fd5b610cbd85828601610c3b565b90969095509350505050565b6101208101818360005b6003811015610d10578151805184526020810151602085015260408101511515604085015250606083019250602082019150600181019050610cd3565b50505092915050565b60008060208385031215610d2c57600080fd5b823567ffffffffffffffff811115610d4357600080fd5b8301601f81018513610d5457600080fd5b803567ffffffffffffffff811115610d6b57600080fd5b8560208260071b8401011115610d8057600080fd5b6020919091019590945092505050565b602080825282518282018190526000918401906040840190835b81811015610dc8578351835260209384019390920191600101610daa565b509095945050505050565b600060208284031215610de557600080fd5b5035919050565b634e487b7160e01b600052603260045260246000fd5b634e487b7160e01b600052601160045260246000fd5b6001600160801b03818116838216019081111561095e5761095e610e02565b80356001600160a01b0381168114610e4e57600080fd5b919050565b600060208284031215610e6557600080fd5b610a3082610e37565b808202811582820484141761095e5761095e610e02565b600082610ea257634e487b7160e01b600052601260045260246000fd5b500490565b8181038181111561095e5761095e610e02565b634e487b7160e01b600052604160045260246000fd5b60008235607e19833603018112610ee657600080fd5b9190910192915050565b6040805190810167ffffffffffffffff81118282101715610f1357610f13610eba565b60405290565b6040516080810167ffffffffffffffff81118282101715610f1357610f13610eba565b604051610120810167ffffffffffffffff81118282101715610f1357610f13610eba565b604051601f8201601f1916810167ffffffffffffffff81118282101715610f8957610f89610eba565b604052919050565b803560048110610e4e57600080fd5b600082601f830112610fb157600080fd5b813567ffffffffffffffff811115610fcb57610fcb610eba565b610fda60208260051b01610f60565b8082825260208201915060208360061b860101925085831115610ffc57600080fd5b602085015b83811015611046576040818803121561101957600080fd5b611021610ef0565b61102a82610f91565b8152602082810135818301529084529290920191604001611001565b5095945050505050565b60006080823603121561106257600080fd5b61106a610f19565b823567ffffffffffffffff81111561108157600080fd5b830161012036829003121561109557600080fd5b61109d610f3c565b6110a682610f91565b81526020828101359082015260408083013590820152606082013567ffffffffffffffff8111156110d657600080fd5b6110e236828501610fa0565b6060830152506080828101359082015260a0808301359082015260c0808301359082015260e080830135908201526101009182013591810191909152815261112c60208401610e37565b602082015261113d60408401610e37565b6040820152606092830135928101929092525090565b60006020828403121561116557600080fd5b81518015158114610a3057600080fd5b6000825160005b81811015611196576020818601810151858301520161117c565b50600092019182525091905056fea26469706673582212208ab33e9f0c41683a246d5668c92178b4f8c619d81f2a93aadeda29f2c2f4887664736f6c634300081c0033",
  "linkReferences": {},
  "deployedLinkReferences": {}
}