{
  "_format": "hh-sol-artifact-1",
  "contractName": "PaymentVault",
  "sourceName": "contracts/PaymentVaultNoProxyV4.sol",
  "abi": [
    {
      "inputs": [
        {
          "internalType": "contract IERC20",
          "name": "_antToken",
          "type": "address"
        }
      ],
      "stateMutability": "nonpayable",
      "type": "constructor"
    },
    {
      "inputs": [
        {
          "internalType": "address",
          "name": "target",
          "type": "address"
        }
      ],
      "name": "AddressEmptyCode",
      "type": "error"
    },
    {
      "inputs": [
        {
          "internalType": "address",
          "name": "account",
          "type": "address"
        }
      ],
      "name": "AddressInsufficientBalance",
      "type": "error"
    },
    {
      "inputs": [],
      "name": "AntTokenNull",
      "type": "error"
    },
    {
      "inputs": [],
      "name": "BatchLimitExceeded",
      "type": "error"
    },
    {
      "inputs": [],
      "name": "FailedInnerCall",
      "type": "error"
    },
    {
      "inputs": [],
      "name": "InvalidInputLength",
      "type": "error"
    },
    {
      "inputs": [
        {
          "internalType": "address",
          "name": "token",
          "type": "address"
        }
      ],
      "name": "SafeERC20FailedOperation",
      "type": "error"
    },
    {
      "anonymous": false,
      "inputs": [
        {
          "indexed": true,
          "internalType": "address",
          "name": "rewardsAddress",
          "type": "address"
        },
        {
          "indexed": true,
          "internalType": "uint256",
          "name": "amount",
          "type": "uint256"
        },
        {
          "indexed": true,
          "internalType": "bytes32",
          "name": "quoteHash",
          "type": "bytes32"
        }
      ],
      "name": "DataPaymentMade",
      "type": "event"
    },
    {
      "inputs": [],
      "name": "antToken",
      "outputs": [
        {
          "internalType": "contract IERC20",
          "name": "",
          "type": "address"
        }
      ],
      "stateMutability": "view",
      "type": "function"
    },
    {
      "inputs": [],
      "name": "batchLimit",
      "outputs": [
        {
          "internalType": "uint256",
          "name": "",
          "type": "uint256"
        }
      ],
      "stateMutability": "view",
      "type": "function"
    },
    {
      "inputs": [
        {
          "internalType": "bytes32",
          "name": "",
          "type": "bytes32"
        }
      ],
      "name": "completedPayments",
      "outputs": [
        {
          "internalType": "bytes16",
          "name": "rewardsAddress",
          "type": "bytes16"
        },
        {
          "internalType": "uint128",
          "name": "rewardsAddressAmount",
          "type": "uint128"
        },
        {
          "internalType": "bytes16",
          "name": "relayNodeAddress",
          "type": "bytes16"
        },
        {
          "internalType": "uint128",
          "name": "relayNodeAmount",
          "type": "uint128"
        }
      ],
      "stateMutability": "view",
      "type": "function"
    },
    {
      "inputs": [
        {
          "components": [
            {
              "internalType": "enum IPaymentVault.DataType",
              "name": "dataType",
              "type": "uint8"
            },
            {
              "internalType": "uint256",
              "name": "dataSize",
              "type": "uint256"
            },
            {
              "internalType": "uint256",
              "name": "closeRecordsStored",
              "type": "uint256"
            },
            {
              "components": [
                {
                  "internalType": "enum IPaymentVault.DataType",
                  "name": "dataType",
                  "type": "uint8"
                },
                {
                  "internalType": "uint256",
                  "name": "records",
                  "type": "uint256"
                }
              ],
              "internalType": "struct IPaymentVault.Record[]",
              "name": "recordsPerType",
              "type": "tuple[]"
            },
            {
              "internalType": "uint256",
              "name": "maxRecords",
              "type": "uint256"
            },
            {
              "internalType": "uint256",
              "name": "receivedPaymentCount",
              "type": "uint256"
            },
            {
              "internalType": "uint256",
              "name": "liveTime",
              "type": "uint256"
            },
            {
              "internalType": "uint256",
              "name": "networkDensity",
              "type": "uint256"
            },
            {
              "internalType": "uint256",
              "name": "networkSize",
              "type": "uint256"
            }
          ],
          "internalType": "struct IPaymentVault.QuotingMetrics[]",
          "name": "_metrics",
          "type": "tuple[]"
        }
      ],
      "name": "getQuote",
      "outputs": [
        {
          "internalType": "uint256[]",
          "name": "prices",
          "type": "uint256[]"
        }
      ],
      "stateMutability": "pure",
      "type": "function"
    },
    {
      "inputs": [
        {
          "components": [
            {
              "internalType": "address",
              "name": "relayNodeAddress",
              "type": "address"
            },
            {
              "internalType": "address",
              "name": "rewardsAddress",
              "type": "address"
            },
            {
              "internalType": "uint256",
              "name": "amount",
              "type": "uint256"
            },
            {
              "internalType": "bytes32",
              "name": "quoteHash",
              "type": "bytes32"
            }
          ],
          "internalType": "struct IPaymentVault.DataPayment[]",
          "name": "_payments",
          "type": "tuple[]"
        }
      ],
      "name": "payForQuotes",
      "outputs": [],
      "stateMutability": "nonpayable",
      "type": "function"
    },
    {
      "inputs": [],
      "name": "requiredPaymentVerificationLength",
      "outputs": [
        {
          "internalType": "uint256",
          "name": "",
          "type": "uint256"
        }
      ],
      "stateMutability": "view",
      "type": "function"
    },
    {
      "inputs": [
        {
          "components": [
            {
              "components": [
                {
                  "internalType": "enum IPaymentVault.DataType",
                  "name": "dataType",
                  "type": "uint8"
                },
                {
                  "internalType": "uint256",
                  "name": "dataSize",
                  "type": "uint256"
                },
                {
                  "internalType": "uint256",
                  "name": "closeRecordsStored",
                  "type": "uint256"
                },
                {
                  "components": [
                    {
                      "internalType": "enum IPaymentVault.DataType",
                      "name": "dataType",
                      "type": "uint8"
                    },
                    {
                      "internalType": "uint256",
                      "name": "records",
                      "type": "uint256"
                    }
                  ],
                  "internalType": "struct IPaymentVault.Record[]",
                  "name": "recordsPerType",
                  "type": "tuple[]"
                },
                {
                  "internalType": "uint256",
                  "name": "maxRecords",
                  "type": "uint256"
                },
                {
                  "internalType": "uint256",
                  "name": "receivedPaymentCount",
                  "type": "uint256"
                },
                {
                  "internalType": "uint256",
                  "name": "liveTime",
                  "type": "uint256"
                },
                {
                  "internalType": "uint256",
                  "name": "networkDensity",
                  "type": "uint256"
                },
                {
                  "internalType": "uint256",
                  "name": "networkSize",
                  "type": "uint256"
                }
              ],
              "internalType": "struct IPaymentVault.QuotingMetrics",
              "name": "metrics",
              "type": "tuple"
            },
            {
              "internalType": "address",
              "name": "rewardsAddress",
              "type": "address"
            },
            {
              "internalType": "bytes32",
              "name": "quoteHash",
              "type": "bytes32"
            }
          ],
          "internalType": "struct IPaymentVault.PaymentVerification[]",
          "name": "_payments",
          "type": "tuple[]"
        }
      ],
      "name": "verifyPayment",
      "outputs": [
        {
          "components": [
            {
              "internalType": "bytes32",
              "name": "quoteHash",
              "type": "bytes32"
            },
            {
              "internalType": "uint256",
              "name": "amountPaid",
              "type": "uint256"
            },
            {
              "internalType": "bool",
              "name": "isValid",
              "type": "bool"
            }
          ],
          "internalType": "struct IPaymentVault.PaymentVerificationResult[3]",
          "name": "verificationResults",
          "type": "tuple[3]"
        }
      ],
      "stateMutability": "view",
      "type": "function"
    },
    {
      "inputs": [
        {
          "components": [
            {
              "components": [
                {
                  "internalType": "enum IPaymentVault.DataType",
                  "name": "dataType",
                  "type": "uint8"
                },
                {
                  "internalType": "uint256",
                  "name": "dataSize",
                  "type": "uint256"
                },
                {
                  "internalType": "uint256",
                  "name": "closeRecordsStored",
                  "type": "uint256"
                },
                {
                  "components": [
                    {
                      "internalType": "enum IPaymentVault.DataType",
                      "name": "dataType",
                      "type": "uint8"
                    },
                    {
                      "internalType": "uint256",
                      "name": "records",
                      "type": "uint256"
                    }
                  ],
                  "internalType": "struct IPaymentVault.Record[]",
                  "name": "recordsPerType",
                  "type": "tuple[]"
                },
                {
                  "internalType": "uint256",
                  "name": "maxRecords",
                  "type": "uint256"
                },
                {
                  "internalType": "uint256",
                  "name": "receivedPaymentCount",
                  "type": "uint256"
                },
                {
                  "internalType": "uint256",
                  "name": "liveTime",
                  "type": "uint256"
                },
                {
                  "internalType": "uint256",
                  "name": "networkDensity",
                  "type": "uint256"
                },
                {
                  "internalType": "uint256",
                  "name": "networkSize",
                  "type": "uint256"
                }
              ],
              "internalType": "struct IPaymentVault.QuotingMetrics",
              "name": "metrics",
              "type": "tuple"
            },
            {
              "internalType": "address",
              "name": "rewardsAddress",
              "type": "address"
            },
            {
              "internalType": "address",
              "name": "relayNodeAddress",
              "type": "address"
            },
            {
              "internalType": "bytes32",
              "name": "quoteHash",
              "type": "bytes32"
            }
          ],
          "internalType": "struct IPaymentVault.PaymentVerificationV2[]",
          "name": "_payments",
          "type": "tuple[]"
        }
      ],
      "name": "verifyPaymentV2",
      "outputs": [
        {
          "components": [
            {
              "internalType": "bytes32",
              "name": "quoteHash",
              "type": "bytes32"
            },
            {
              "internalType": "uint256",
              "name": "amountPaid",
              "type": "uint256"
            },
            {
              "internalType": "bool",
              "name": "isValid",
              "type": "bool"
            }
          ],
          "internalType": "struct IPaymentVault.PaymentVerificationResult[3]",
          "name": "verificationResults",
          "type": "tuple[3]"
        }
      ],
      "stateMutability": "view",
      "type": "function"
    }
  ],
  "bytecode": "0x6080604052348015600f57600080fd5b50604051611824380380611824833981016040819052602c916076565b6001600160a01b038116605257604051632d06160b60e21b815260040160405180910390fd5b600080546001600160a01b0319166001600160a01b039290921691909117905560a4565b600060208284031215608757600080fd5b81516001600160a01b0381168114609d57600080fd5b9392505050565b611771806100b36000396000f3fe608060405234801561001057600080fd5b50600436106100885760003560e01c80634ec42e8e1161005b5780634ec42e8e14610102578063a1bb2b451461012d578063c7170bb614610140578063fe3c806e1461014857600080fd5b8063102712831461008d57806338f03e75146100a25780633ffbb252146100cb578063474740b1146100eb575b600080fd5b6100a061009b36600461113b565b6101ce565b005b6100b56100b03660046111fb565b6103ec565b6040516100c2919061123c565b60405180910390f35b6100de6100d93660046111fb565b610605565b6040516100c2919061128c565b6100f461020081565b6040519081526020016100c2565b600054610115906001600160a01b031681565b6040516001600160a01b0390911681526020016100c2565b6100b561013b3660046111fb565b61068d565b6100f4600581565b6101936101563660046112cf565b60016020819052600091825260409091208054910154608082811b926001600160801b03600160801b918290048116939283901b92919091041684565b604080516001600160801b031995861681526001600160801b03948516602082015294909216918401919091521660608201526080016100c2565b806102008111156101f257604051630d67f41160e21b815260040160405180910390fd5b60005b818110156103e65736848483818110610210576102106112e8565b60800291909101915060009050808061022c602085018561131a565b6001600160a01b03160361024857505060408101356000610276565b60646102596040850135601961134b565b6102639190611362565b9150610273826040850135611384565b90505b61029e3361028a604086016020870161131a565b6000546001600160a01b03169190856108d4565b80156102c9576102c9336102b5602086018661131a565b6000546001600160a01b03169190846108d4565b60405180608001604052806102fa8560200160208101906102ea919061131a565b60601b6001600160801b03191690565b6001600160801b0319168152602001836001600160801b0316815260200161032e8560000160208101906102ea919061131a565b6001600160801b03191681526001600160801b03838116602092830152606080870135600081815260018086526040918290208751888801518716600160801b908102608092831c1783558985015199909601519096169094029690941c9590951791909201559184916103a691870190870161131a565b6001600160a01b03167ff998960b1c6f0e0e89b7bbe6b6fbf3e03e6f08eee5b8430877d8adb8e149d58060405160405180910390a45050506001016101f5565b50505050565b6103f4611000565b6005821461041557604051637db491eb60e01b815260040160405180910390fd5b6000610421848461092e565b905060005b60038110156105fd57600060016000848460038110610447576104476112e8565b60209081029190910151604090810151835282820193909352908201600090812083516080808201865282546001600160801b031981831b81168452600160801b918290046001600160801b039081169785018890526001958601549384901b909116978401979097529004909416606085018190529394509290916104cd9190611397565b6001600160801b031615801590610500575081836060015184602001516104f49190611397565b6001600160801b031610155b90506000610532868660038110610519576105196112e8565b60200201516020015160601b6001600160801b03191690565b84516001600160801b031990811691161480156105735750600086866003811061055e5761055e6112e8565b6020020151602001516001600160a01b031614155b905060006040518060600160405280888860038110610594576105946112e8565b6020020151604001518152602001866060015187602001516105b69190611397565b6001600160801b031681526020018480156105ce5750835b151590529050808887600381106105e7576105e76112e8565b6020020152505060019093019250610426915050565b505092915050565b60606000826001600160401b03811115610621576106216113b6565b60405190808252806020026020018201604052801561064a578160200160208202803683370190505b50905060005b838110156106855760006001905080838381518110610671576106716112e8565b602090810291909101015250600101610650565b509392505050565b610695611000565b600582146106b657604051637db491eb60e01b815260040160405180910390fd5b60006106c28484610bc2565b905060005b60038110156105fd576000600160008484600381106106e8576106e86112e8565b602090810291909101516060908101518352828201939093526040918201600090812083516080808201865282546001600160801b031981831b81168452600160801b918290046001600160801b039081169785018890526001958601549384901b909116978401979097529004909416948401859052929450919261076d91611397565b6001600160801b0316158015906107a0575081836060015184602001516107949190611397565b6001600160801b031610155b905060006107b9868660038110610519576105196112e8565b84516001600160801b031990811691161480156107fa575060008686600381106107e5576107e56112e8565b6020020151602001516001600160a01b031614155b801561084a575061082f868660038110610816576108166112e8565b60200201516040015160601b6001600160801b03191690565b6001600160801b03191684604001516001600160801b031916145b90506000604051806060016040528088886003811061086b5761086b6112e8565b60200201516060015181526020018660600151876020015161088d9190611397565b6001600160801b031681526020018480156108a55750835b151590529050808887600381106108be576108be6112e8565b60200201525050600190930192506106c7915050565b604080516001600160a01b0385811660248301528416604482015260648082018490528251808303909101815260849091019091526020810180516001600160e01b03166323b872dd60e01b1790526103e6908590610e5c565b61093661103f565b60005b82811015610bba57600060016000868685818110610959576109596112e8565b905060200281019061096b91906113cc565b6040908101358252602080830193909352908101600090812082516080808201855282546001600160801b031981831b81168452600160801b918290046001600160801b039081169885018990526001909501549283901b1695830195909552939093041660608301819052919350916109e59190611397565b8451604090810151600090815260016020819052828220015487518301518252919020546001600160801b039283169350610a2f92600160801b9283900481169290910416611397565b6001600160801b0316811115610a8957602084018051604086015284519052858584818110610a6057610a606112e8565b9050602002810190610a7291906113cc565b610a7b906115c7565b8460005b6020020152610bb0565b602084810180516040908101516000908152600193849052818120909301549151810151835290912054610ad5916001600160801b03600160801b918290048116929190910416611397565b6001600160801b0316811115610b245760208401516040850152858584818110610b0157610b016112e8565b9050602002810190610b1391906113cc565b610b1c906115c7565b846001610a7f565b604084810180518201516000908152600160208190528382200154915183015181529190912054610b6d916001600160801b03600160801b918290048116929190910416611397565b6001600160801b0316811115610bb057858584818110610b8f57610b8f6112e8565b9050602002810190610ba191906113cc565b610baa906115c7565b60408501525b5050600101610939565b505b92915050565b610bca61106c565b60005b82811015610bba57600060016000868685818110610bed57610bed6112e8565b9050602002810190610bff9190611645565b60609081013582526020808301939093526040918201600090812083516080808201865282546001600160801b031981831b81168452600160801b918290046001600160801b039081169985018a90526001909501549283901b169683019690965294909404169183018290529193509091610c7b9190611397565b845160609081015160009081526001602081905260408083209091015488519093015182529020546001600160801b039283169350610cc992600160801b9283900481169290910416611397565b6001600160801b0316811115610d2357602084018051604086015284519052858584818110610cfa57610cfa6112e8565b9050602002810190610d0c9190611645565b610d159061165b565b8460005b6020020152610e52565b60208481018051606090810151600090815260019384905260408082209094015492519091015181529190912054610d73916001600160801b03600160801b918290048116929190910416611397565b6001600160801b0316811115610dc25760208401516040850152858584818110610d9f57610d9f6112e8565b9050602002810190610db19190611645565b610dba9061165b565b846001610d19565b60408481018051606090810151600090815260016020819052848220015492519091015181529190912054610e0f916001600160801b03600160801b918290048116929190910416611397565b6001600160801b0316811115610e5257858584818110610e3157610e316112e8565b9050602002810190610e439190611645565b610e4c9061165b565b60408501525b5050600101610bcd565b6000610e716001600160a01b03841683610ec9565b90508051600014158015610e96575080806020019051810190610e9491906116ea565b155b15610ec457604051635274afe760e01b81526001600160a01b03841660048201526024015b60405180910390fd5b505050565b6060610ed783836000610ede565b9392505050565b606081471015610f035760405163cd78605960e01b8152306004820152602401610ebb565b600080856001600160a01b03168486604051610f1f919061170c565b60006040518083038185875af1925050503d8060008114610f5c576040519150601f19603f3d011682016040523d82523d6000602084013e610f61565b606091505b5091509150610f71868383610f7b565b9695505050505050565b606082610f9057610f8b82610fd7565b610ed7565b8151158015610fa757506001600160a01b0384163b155b15610fd057604051639996b31560e01b81526001600160a01b0385166004820152602401610ebb565b5080610ed7565b805115610fe75780518082602001fd5b604051630a12f52160e11b815260040160405180910390fd5b60405180606001604052806003905b604080516060810182526000808252602080830182905292820152825260001990920191018161100f5790505090565b60405180606001604052806003905b611056611099565b81526020019060019003908161104e5790505090565b60405180606001604052806003905b6110836110c0565b81526020019060019003908161107b5790505090565b60405180606001604052806110ac6110ee565b815260006020820181905260409091015290565b60405180608001604052806110d36110ee565b81526000602082018190526040820181905260609091015290565b604080516101208101909152806000815260200160008152602001600081526020016060815260200160008152602001600081526020016000815260200160008152602001600081525090565b6000806020838503121561114e57600080fd5b82356001600160401b0381111561116457600080fd5b8301601f8101851361117557600080fd5b80356001600160401b0381111561118b57600080fd5b8560208260071b84010111156111a057600080fd5b6020919091019590945092505050565b60008083601f8401126111c257600080fd5b5081356001600160401b038111156111d957600080fd5b6020830191508360208260051b85010111156111f457600080fd5b9250929050565b6000806020838503121561120e57600080fd5b82356001600160401b0381111561122457600080fd5b611230858286016111b0565b90969095509350505050565b6101208101818360005b6003811015611283578151805184526020810151602085015260408101511515604085015250606083019250602082019150600181019050611246565b50505092915050565b602080825282518282018190526000918401906040840190835b818110156112c45783518352602093840193909201916001016112a6565b509095945050505050565b6000602082840312156112e157600080fd5b5035919050565b634e487b7160e01b600052603260045260246000fd5b80356001600160a01b038116811461131557600080fd5b919050565b60006020828403121561132c57600080fd5b610ed7826112fe565b634e487b7160e01b600052601160045260246000fd5b8082028115828204841417610bbc57610bbc611335565b60008261137f57634e487b7160e01b600052601260045260246000fd5b500490565b81810381811115610bbc57610bbc611335565b6001600160801b038181168382160190811115610bbc57610bbc611335565b634e487b7160e01b600052604160045260246000fd5b60008235605e198336030181126113e257600080fd5b9190910192915050565b604080519081016001600160401b038111828210171561140e5761140e6113b6565b60405290565b60405161012081016001600160401b038111828210171561140e5761140e6113b6565b604051601f8201601f191681016001600160401b038111828210171561145f5761145f6113b6565b604052919050565b80356004811061131557600080fd5b600082601f83011261148757600080fd5b81356001600160401b038111156114a0576114a06113b6565b6114af60208260051b01611437565b8082825260208201915060208360061b8601019250858311156114d157600080fd5b602085015b8381101561151b57604081880312156114ee57600080fd5b6114f66113ec565b6114ff82611467565b81526020828101358183015290845292909201916040016114d6565b5095945050505050565b6000610120828403121561153857600080fd5b611540611414565b905061154b82611467565b8152602082810135908201526040808301359082015260608201356001600160401b0381111561157a57600080fd5b61158684828501611476565b6060830152506080828101359082015260a0808301359082015260c0808301359082015260e080830135908201526101009182013591810191909152919050565b6000606082360312156115d957600080fd5b604051606081016001600160401b03811182821017156115fb576115fb6113b6565b60405282356001600160401b0381111561161457600080fd5b61162036828601611525565b82525061162f602084016112fe565b6020820152604092830135928101929092525090565b60008235607e198336030181126113e257600080fd5b60006080823603121561166d57600080fd5b604051608081016001600160401b038111828210171561168f5761168f6113b6565b60405282356001600160401b038111156116a857600080fd5b6116b436828601611525565b8252506116c3602084016112fe565b60208201526116d4604084016112fe565b6040820152606092830135928101929092525090565b6000602082840312156116fc57600080fd5b81518015158114610ed757600080fd5b6000825160005b8181101561172d5760208186018101518583015201611713565b50600092019182525091905056fea2646970667358221220e59d33db6e3aa07375d45456828ace3ba551cd983105ae964f0d90229e8891ee64736f6c634300081c0033",
  "linkReferences": {},
  "deployedLinkReferences": {}
}